:100000000C942A000C943C000C943C000C943C0092
:100010000C943C000C943C000C943C000C943C0070
:100020000C943C000C943C000C943C000C944B0051
:100030000C943C000C943C000C943C000C943C0050
:100040000C943C000C943C000C943C000C943C0040
:100050000C943C0011241FBECFE5D4E0DEBFCDBF21
:1000600020E0A0E6B0E001C01D92A23AB207E1F79D
:100070000E94EC000C941F010C9400002FEF2093C1
:1000800061002093600090BD89B986E880BD80E959
:100090008AB9789408951F920F920FB60F92112487
:1000A0002F933F934F938F939F93EF93FF934CB175
:1000B000809161008F3389F180916100209160000F
:1000C000992787FD90950196332727FD3095821754
:1000D000930739F1809161008F3391F18091610034
:1000E0008F5F80936100E0916100FF27E7FDF0954D
:1000F000EE59FF4F4083809160008F3F11F41092C2
:100100006000FF91EF919F918F914F913F912F91BF
:100110000F900FBE0F901F90189580916000811175
:10012000CBCF809160008F5F8093600080916000F2
:10013000803481F610926000809161008F3371F6F7
:1001400010926100D0CF809160008F3F09F1E09163
:100150006000FF27E7FDF095EE59FF4F8081209169
:10016000600090916100291751F0909160009F5FAD
:100170009093600090916000903439F008959FEF63
:10018000909361009093600008951092600008952C
:1001900080E00895809160008F3FD1F090916000E1
:1001A0008091610098176CF09091600080916100DF
:1001B000891784F480916100909160008F5B891BA6
:1001C000089580916100909160008F5F891B089570
:1001D00080E0089581E00895CF93DF9300D000D0B0
:1001E0001F92CDB7DEB784B38FEF84BB80EA91E076
:1001F0000E943E000E94CA008823E1F30E94A300EF
:100200008134C1F70E94CA008823E1F30E94A30051
:10021000813481F70E94CA008330E1F70E94A30075
:100220008B830E94A3008C830E94A3002B819C815E
:1002300090952913DFCF8A35E9F625BBDBCFF894FB
:02024000FFCFEE
:00000001FF
